{
  "address": "0x2d13826359803522cCe7a4Cfa2c1b582303DD0B4",
  "abi": [
    {
      "inputs": [
        {
          "internalType": "address",
          "name": "_tokenToAirdrop",
          "type": "address"
        },
        {
          "internalType": "uint256",
          "name": "_amountToAirdrop",
          "type": "uint256"
        },
        {
          "internalType": "address",
          "name": "_vestingManager",
          "type": "address"
        }
      ],
      "stateMutability": "nonpayable",
      "type": "constructor"
    },
    {
      "anonymous": false,
      "inputs": [
        {
          "indexed": true,
          "internalType": "address",
          "name": "previousOwner",
          "type": "address"
        },
        {
          "indexed": true,
          "internalType": "address",
          "name": "newOwner",
          "type": "address"
        }
      ],
      "name": "OwnershipTransferred",
      "type": "event"
    },
    {
      "inputs": [],
      "name": "CLIFF",
      "outputs": [
        {
          "internalType": "uint256",
          "name": "",
          "type": "uint256"
        }
      ],
      "stateMutability": "view",
      "type": "function"
    },
    {
      "inputs": [],
      "name": "DURATION",
      "outputs": [
        {
          "internalType": "uint256",
          "name": "",
          "type": "uint256"
        }
      ],
      "stateMutability": "view",
      "type": "function"
    },
    {
      "inputs": [],
      "name": "claim",
      "outputs": [],
      "stateMutability": "nonpayable",
      "type": "function"
    },
    {
      "inputs": [],
      "name": "initialize",
      "outputs": [],
      "stateMutability": "nonpayable",
      "type": "function"
    },
    {
      "inputs": [
        {
          "internalType": "address",
          "name": "_address",
          "type": "address"
        }
      ],
      "name": "isClaimed",
      "outputs": [
        {
          "internalType": "bool",
          "name": "",
          "type": "bool"
        }
      ],
      "stateMutability": "view",
      "type": "function"
    },
    {
      "inputs": [],
      "name": "owner",
      "outputs": [
        {
          "internalType": "address",
          "name": "",
          "type": "address"
        }
      ],
      "stateMutability": "view",
      "type": "function"
    },
    {
      "inputs": [],
      "name": "renounceOwnership",
      "outputs": [],
      "stateMutability": "nonpayable",
      "type": "function"
    },
    {
      "inputs": [
        {
          "internalType": "address",
          "name": "",
          "type": "address"
        }
      ],
      "name": "s_addressToIsClaimed",
      "outputs": [
        {
          "internalType": "bool",
          "name": "",
          "type": "bool"
        }
      ],
      "stateMutability": "view",
      "type": "function"
    },
    {
      "inputs": [],
      "name": "s_amountToAirdrop",
      "outputs": [
        {
          "internalType": "uint256",
          "name": "",
          "type": "uint256"
        }
      ],
      "stateMutability": "view",
      "type": "function"
    },
    {
      "inputs": [],
      "name": "s_tokenToAirdrop",
      "outputs": [
        {
          "internalType": "contract IERC20",
          "name": "",
          "type": "address"
        }
      ],
      "stateMutability": "view",
      "type": "function"
    },
    {
      "inputs": [],
      "name": "s_vestingManager",
      "outputs": [
        {
          "internalType": "contract VestingManager",
          "name": "",
          "type": "address"
        }
      ],
      "stateMutability": "view",
      "type": "function"
    },
    {
      "inputs": [
        {
          "internalType": "address",
          "name": "newOwner",
          "type": "address"
        }
      ],
      "name": "transferOwnership",
      "outputs": [],
      "stateMutability": "nonpayable",
      "type": "function"
    },
    {
      "inputs": [],
      "name": "withdraw",
      "outputs": [],
      "stateMutability": "nonpayable",
      "type": "function"
    }
  ],
  "transactionHash": "0x4f421f2dea9aeb5f7f8a76d0641128afc25b85e34c5dd8af05ce82651740493c",
  "args": [
    "0xB7ca895F81F20e05A5eb11B05Cbaab3DAe5e23cd",
    "1500000000000000000000000",
    "0xd0EC100F1252a53322051a95CF05c32f0C174354"
  ],
  "numDeployments": 1,
  "solcInputHash": "a620dc2205321e66ee82ed67fb0dae18",
  "bytecode": "0x60e06040523480156200001157600080fd5b506040516200121e3803806200121e833981810160405281019062000037919062000241565b620000576200004b620000d060201b60201c565b620000d860201b60201c565b8273ffffffffffffffffffffffffffffffffffffffff1660808173ffffffffffffffffffffffffffffffffffffffff16815250508160a081815250508073ffffffffffffffffffffffffffffffffffffffff1660c08173ffffffffffffffffffffffffffffffffffffffff16815250505050506200029d565b600033905090565b60008060009054906101000a900473ffffffffffffffffffffffffffffffffffffffff169050816000806101000a81548173ffffffffffffffffffffffffffffffffffffffff021916908373ffffffffffffffffffffffffffffffffffffffff1602179055508173ffffffffffffffffffffffffffffffffffffffff168173ffffffffffffffffffffffffffffffffffffffff167f8be0079c531659141344cd1fd0a4f28419497f9722a3daafe3b4186f6b6457e060405160405180910390a35050565b600080fd5b600073ffffffffffffffffffffffffffffffffffffffff82169050919050565b6000620001ce82620001a1565b9050919050565b620001e081620001c1565b8114620001ec57600080fd5b50565b6000815190506200020081620001d5565b92915050565b6000819050919050565b6200021b8162000206565b81146200022757600080fd5b50565b6000815190506200023b8162000210565b92915050565b6000806000606084860312156200025d576200025c6200019c565b5b60006200026d86828701620001ef565b935050602062000280868287016200022a565b92505060406200029386828701620001ef565b9150509250925092565b60805160a05160c051610f19620003056000396000818161057e015281816106b601526107e101526000818161042b015281816105bb015261063a01526000818161025e0152818161029b0152818161044c0152818161067a01526108050152610f196000f3fe608060405234801561001057600080fd5b50600436106100cf5760003560e01c80638129fc1c1161008c578063b87592f211610066578063b87592f2146101b6578063d5ed334e146101d4578063f29cbeec146101f2578063f2fde38b14610210576100cf565b80638129fc1c1461015e5780638cc08025146101685780638da5cb5b14610198576100cf565b80631be05289146100d4578063296ac2f0146100f25780633ccfd60b146101225780634e71d92d1461012c57806355a98eda14610136578063715018a614610154575b600080fd5b6100dc61022c565b6040516100e99190610a0d565b60405180910390f35b61010c60048036038101906101079190610a8b565b610234565b6040516101199190610ad3565b60405180910390f35b61012a610254565b005b610134610396565b005b61013e610638565b60405161014b9190610a0d565b60405180910390f35b61015c61065c565b005b610166610670565b005b610182600480360381019061017d9190610a8b565b610759565b60405161018f9190610ad3565b60405180910390f35b6101a06107af565b6040516101ad9190610afd565b60405180910390f35b6101be6107d8565b6040516101cb9190610a0d565b60405180910390f35b6101dc6107df565b6040516101e99190610b77565b60405180910390f35b6101fa610803565b6040516102079190610bb3565b60405180910390f35b61022a60048036038101906102259190610a8b565b610827565b005b6301e1338081565b60016020528060005260406000206000915054906101000a900460ff1681565b61025c6108aa565b7f000000000000000000000000000000000000000000000000000000000000000073ffffffffffffffffffffffffffffffffffffffff1663a9059cbb337f000000000000000000000000000000000000000000000000000000000000000073ffffffffffffffffffffffffffffffffffffffff166370a08231306040518263ffffffff1660e01b81526004016102f29190610afd565b602060405180830381865afa15801561030f573d6000803e3d6000fd5b505050506040513d601f19601f820116820180604052508101906103339190610bfa565b6040518363ffffffff1660e01b8152600401610350929190610c27565b6020604051808303816000875af115801561036f573d6000803e3d6000fd5b505050506040513d601f19601f820116820180604052508101906103939190610c7c565b50565b60001515600160003373ffffffffffffffffffffffffffffffffffffffff1673ffffffffffffffffffffffffffffffffffffffff16815260200190815260200160002060009054906101000a900460ff16151514610429576040517f08c379a000000000000000000000000000000000000000000000000000000000815260040161042090610d06565b60405180910390fd5b7f00000000000000000000000000000000000000000000000000000000000000007f000000000000000000000000000000000000000000000000000000000000000073ffffffffffffffffffffffffffffffffffffffff166370a08231306040518263ffffffff1660e01b81526004016104a39190610afd565b602060405180830381865afa1580156104c0573d6000803e3d6000fd5b505050506040513d601f19601f820116820180604052508101906104e49190610bfa565b1015610525576040517f08c379a000000000000000000000000000000000000000000000000000000000815260040161051c90610d72565b60405180910390fd5b60018060003373ffffffffffffffffffffffffffffffffffffffff1673ffffffffffffffffffffffffffffffffffffffff16815260200190815260200160002060006101000a81548160ff0219169083151502179055507f000000000000000000000000000000000000000000000000000000000000000073ffffffffffffffffffffffffffffffffffffffff16639e2583c9337f0000000000000000000000000000000000000000000000000000000000000000426202a3006301e133806040518663ffffffff1660e01b8152600401610604959493929190610d92565b600060405180830381600087803b15801561061e57600080fd5b505af1158015610632573d6000803e3d6000fd5b50505050565b7f000000000000000000000000000000000000000000000000000000000000000081565b6106646108aa565b61066e6000610928565b565b6106786108aa565b7f000000000000000000000000000000000000000000000000000000000000000073ffffffffffffffffffffffffffffffffffffffff1663095ea7b37f00000000000000000000000000000000000000000000000000000000000000007fffffffffffffffffffffffffffffffffffffffffffffffffffffffffffffffff6040518363ffffffff1660e01b8152600401610713929190610c27565b6020604051808303816000875af1158015610732573d6000803e3d6000fd5b505050506040513d601f19601f820116820180604052508101906107569190610c7c565b50565b6000600160008373ffffffffffffffffffffffffffffffffffffffff1673ffffffffffffffffffffffffffffffffffffffff16815260200190815260200160002060009054906101000a900460ff169050919050565b60008060009054906101000a900473ffffffffffffffffffffffffffffffffffffffff16905090565b6202a30081565b7f000000000000000000000000000000000000000000000000000000000000000081565b7f000000000000000000000000000000000000000000000000000000000000000081565b61082f6108aa565b600073ffffffffffffffffffffffffffffffffffffffff168173ffffffffffffffffffffffffffffffffffffffff160361089e576040517f08c379a000000000000000000000000000000000000000000000000000000000815260040161089590610e57565b60405180910390fd5b6108a781610928565b50565b6108b26109ec565b73ffffffffffffffffffffffffffffffffffffffff166108d06107af565b73ffffffffffffffffffffffffffffffffffffffff1614610926576040517f08c379a000000000000000000000000000000000000000000000000000000000815260040161091d90610ec3565b60405180910390fd5b565b60008060009054906101000a900473ffffffffffffffffffffffffffffffffffffffff169050816000806101000a81548173ffffffffffffffffffffffffffffffffffffffff021916908373ffffffffffffffffffffffffffffffffffffffff1602179055508173ffffffffffffffffffffffffffffffffffffffff168173ffffffffffffffffffffffffffffffffffffffff167f8be0079c531659141344cd1fd0a4f28419497f9722a3daafe3b4186f6b6457e060405160405180910390a35050565b600033905090565b6000819050919050565b610a07816109f4565b82525050565b6000602082019050610a2260008301846109fe565b92915050565b600080fd5b600073ffffffffffffffffffffffffffffffffffffffff82169050919050565b6000610a5882610a2d565b9050919050565b610a6881610a4d565b8114610a7357600080fd5b50565b600081359050610a8581610a5f565b92915050565b600060208284031215610aa157610aa0610a28565b5b6000610aaf84828501610a76565b91505092915050565b60008115159050919050565b610acd81610ab8565b82525050565b6000602082019050610ae86000830184610ac4565b92915050565b610af781610a4d565b82525050565b6000602082019050610b126000830184610aee565b92915050565b6000819050919050565b6000610b3d610b38610b3384610a2d565b610b18565b610a2d565b9050919050565b6000610b4f82610b22565b9050919050565b6000610b6182610b44565b9050919050565b610b7181610b56565b82525050565b6000602082019050610b8c6000830184610b68565b92915050565b6000610b9d82610b44565b9050919050565b610bad81610b92565b82525050565b6000602082019050610bc86000830184610ba4565b92915050565b610bd7816109f4565b8114610be257600080fd5b50565b600081519050610bf481610bce565b92915050565b600060208284031215610c1057610c0f610a28565b5b6000610c1e84828501610be5565b91505092915050565b6000604082019050610c3c6000830185610aee565b610c4960208301846109fe565b9392505050565b610c5981610ab8565b8114610c6457600080fd5b50565b600081519050610c7681610c50565b92915050565b600060208284031215610c9257610c91610a28565b5b6000610ca084828501610c67565b91505092915050565b600082825260208201905092915050565b7f41697264726f7020616c726561647920636c61696d6564000000000000000000600082015250565b6000610cf0601783610ca9565b9150610cfb82610cba565b602082019050919050565b60006020820190508181036000830152610d1f81610ce3565b9050919050565b7f4e6f206d6f726520746f6b656e7320746f2061697264726f7000000000000000600082015250565b6000610d5c601983610ca9565b9150610d6782610d26565b602082019050919050565b60006020820190508181036000830152610d8b81610d4f565b9050919050565b600060a082019050610da76000830188610aee565b610db460208301876109fe565b610dc160408301866109fe565b610dce60608301856109fe565b610ddb60808301846109fe565b9695505050505050565b7f4f776e61626c653a206e6577206f776e657220697320746865207a65726f206160008201527f6464726573730000000000000000000000000000000000000000000000000000602082015250565b6000610e41602683610ca9565b9150610e4c82610de5565b604082019050919050565b60006020820190508181036000830152610e7081610e34565b9050919050565b7f4f776e61626c653a2063616c6c6572206973206e6f7420746865206f776e6572600082015250565b6000610ead602083610ca9565b9150610eb882610e77565b602082019050919050565b60006020820190508181036000830152610edc81610ea0565b905091905056fea264697066735822122039dc283b9678193030fda78e484faf585f867dd13965ffd39da2324a03c60d2364736f6c63430008130033",
  "devdoc": {
    "kind": "dev",
    "methods": {
      "claim()": {
        "details": "Claim tokens"
      },
      "constructor": {
        "params": {
          "_amountToAirdrop": ": amount of tokens to airdrop",
          "_tokenToAirdrop": ": address of the token to airdrop",
          "_vestingManager": ": address of the vesting manager"
        }
      },
      "isClaimed(address)": {
        "details": "Check if address has claimed tokens",
        "params": {
          "_address": ": address to check"
        }
      },
      "owner()": {
        "details": "Returns the address of the current owner."
      },
      "renounceOwnership()": {
        "details": "Leaves the contract without owner. It will not be possible to call `onlyOwner` functions anymore. Can only be called by the current owner. NOTE: Renouncing ownership will leave the contract without an owner, thereby removing any functionality that is only available to the owner."
      },
      "transferOwnership(address)": {
        "details": "Transfers ownership of the contract to a new account (`newOwner`). Can only be called by the current owner."
      },
      "withdraw()": {
        "details": "Withdraw tokens"
      }
    },
    "version": 1
  },
  "userdoc": {
    "kind": "user",
    "methods": {},
    "version": 1
  },
  "storageLayout": {
    "storage": [
      {
        "astId": 7,
        "contract": "contracts/Airdrop.sol:Airdrop",
        "label": "_owner",
        "offset": 0,
        "slot": "0",
        "type": "t_address"
      },
      {
        "astId": 836,
        "contract": "contracts/Airdrop.sol:Airdrop",
        "label": "s_addressToIsClaimed",
        "offset": 0,
        "slot": "1",
        "type": "t_mapping(t_address,t_bool)"
      }
    ],
    "types": {
      "t_address": {
        "encoding": "inplace",
        "label": "address",
        "numberOfBytes": "20"
      },
      "t_bool": {
        "encoding": "inplace",
        "label": "bool",
        "numberOfBytes": "1"
      },
      "t_mapping(t_address,t_bool)": {
        "encoding": "mapping",
        "key": "t_address",
        "label": "mapping(address => bool)",
        "numberOfBytes": "32",
        "value": "t_bool"
      }
    }
  }
}