{
  "address": "0xe7f1725E7734CE288F8367e1Bb143E90bb3F0512",
  "abi": [
    {
      "inputs": [
        {
          "internalType": "address",
          "name": "_tokenToVest",
          "type": "address"
        }
      ],
      "stateMutability": "nonpayable",
      "type": "constructor"
    },
    {
      "anonymous": false,
      "inputs": [
        {
          "indexed": true,
          "internalType": "address",
          "name": "s_tokenToVest",
          "type": "address"
        },
        {
          "indexed": false,
          "internalType": "uint256",
          "name": "amount",
          "type": "uint256"
        },
        {
          "indexed": false,
          "internalType": "address",
          "name": "investor",
          "type": "address"
        }
      ],
      "name": "ERC20Released",
      "type": "event"
    },
    {
      "anonymous": false,
      "inputs": [
        {
          "indexed": true,
          "internalType": "address",
          "name": "previousOwner",
          "type": "address"
        },
        {
          "indexed": true,
          "internalType": "address",
          "name": "newOwner",
          "type": "address"
        }
      ],
      "name": "OwnershipTransferred",
      "type": "event"
    },
    {
      "inputs": [
        {
          "internalType": "address",
          "name": "_investor",
          "type": "address"
        },
        {
          "internalType": "uint256",
          "name": "_amount",
          "type": "uint256"
        },
        {
          "internalType": "uint256",
          "name": "_start",
          "type": "uint256"
        },
        {
          "internalType": "uint256",
          "name": "_cliff",
          "type": "uint256"
        },
        {
          "internalType": "uint256",
          "name": "_duration",
          "type": "uint256"
        }
      ],
      "name": "addInvestor",
      "outputs": [],
      "stateMutability": "nonpayable",
      "type": "function"
    },
    {
      "inputs": [
        {
          "internalType": "address",
          "name": "investor",
          "type": "address"
        }
      ],
      "name": "amount",
      "outputs": [
        {
          "internalType": "uint256",
          "name": "",
          "type": "uint256"
        }
      ],
      "stateMutability": "view",
      "type": "function"
    },
    {
      "inputs": [
        {
          "internalType": "address",
          "name": "investor",
          "type": "address"
        }
      ],
      "name": "cliff",
      "outputs": [
        {
          "internalType": "uint256",
          "name": "",
          "type": "uint256"
        }
      ],
      "stateMutability": "view",
      "type": "function"
    },
    {
      "inputs": [
        {
          "internalType": "address",
          "name": "investor",
          "type": "address"
        }
      ],
      "name": "duration",
      "outputs": [
        {
          "internalType": "uint256",
          "name": "",
          "type": "uint256"
        }
      ],
      "stateMutability": "view",
      "type": "function"
    },
    {
      "inputs": [
        {
          "internalType": "address",
          "name": "investor",
          "type": "address"
        }
      ],
      "name": "getInvestorConfig",
      "outputs": [
        {
          "components": [
            {
              "internalType": "uint256",
              "name": "amount",
              "type": "uint256"
            },
            {
              "internalType": "uint256",
              "name": "start",
              "type": "uint256"
            },
            {
              "internalType": "uint256",
              "name": "cliff",
              "type": "uint256"
            },
            {
              "internalType": "uint256",
              "name": "duration",
              "type": "uint256"
            },
            {
              "internalType": "uint256",
              "name": "released",
              "type": "uint256"
            }
          ],
          "internalType": "struct VestingManager.InvestorConfig",
          "name": "",
          "type": "tuple"
        }
      ],
      "stateMutability": "view",
      "type": "function"
    },
    {
      "inputs": [],
      "name": "owner",
      "outputs": [
        {
          "internalType": "address",
          "name": "",
          "type": "address"
        }
      ],
      "stateMutability": "view",
      "type": "function"
    },
    {
      "inputs": [
        {
          "internalType": "address",
          "name": "investor",
          "type": "address"
        }
      ],
      "name": "releasable",
      "outputs": [
        {
          "internalType": "uint256",
          "name": "",
          "type": "uint256"
        }
      ],
      "stateMutability": "view",
      "type": "function"
    },
    {
      "inputs": [
        {
          "internalType": "address",
          "name": "investor",
          "type": "address"
        }
      ],
      "name": "release",
      "outputs": [],
      "stateMutability": "nonpayable",
      "type": "function"
    },
    {
      "inputs": [
        {
          "internalType": "address",
          "name": "investor",
          "type": "address"
        }
      ],
      "name": "released",
      "outputs": [
        {
          "internalType": "uint256",
          "name": "",
          "type": "uint256"
        }
      ],
      "stateMutability": "view",
      "type": "function"
    },
    {
      "inputs": [],
      "name": "renounceOwnership",
      "outputs": [],
      "stateMutability": "nonpayable",
      "type": "function"
    },
    {
      "inputs": [
        {
          "internalType": "address",
          "name": "investor",
          "type": "address"
        }
      ],
      "name": "s_addressToInvestorConfig",
      "outputs": [
        {
          "internalType": "uint256",
          "name": "amount",
          "type": "uint256"
        },
        {
          "internalType": "uint256",
          "name": "start",
          "type": "uint256"
        },
        {
          "internalType": "uint256",
          "name": "cliff",
          "type": "uint256"
        },
        {
          "internalType": "uint256",
          "name": "duration",
          "type": "uint256"
        },
        {
          "internalType": "uint256",
          "name": "released",
          "type": "uint256"
        }
      ],
      "stateMutability": "view",
      "type": "function"
    },
    {
      "inputs": [],
      "name": "s_tokenToVest",
      "outputs": [
        {
          "internalType": "contract IERC20",
          "name": "",
          "type": "address"
        }
      ],
      "stateMutability": "view",
      "type": "function"
    },
    {
      "inputs": [
        {
          "internalType": "address",
          "name": "investor",
          "type": "address"
        }
      ],
      "name": "start",
      "outputs": [
        {
          "internalType": "uint256",
          "name": "",
          "type": "uint256"
        }
      ],
      "stateMutability": "view",
      "type": "function"
    },
    {
      "inputs": [
        {
          "internalType": "address",
          "name": "newOwner",
          "type": "address"
        }
      ],
      "name": "transferOwnership",
      "outputs": [],
      "stateMutability": "nonpayable",
      "type": "function"
    },
    {
      "inputs": [
        {
          "internalType": "uint64",
          "name": "timestamp",
          "type": "uint64"
        },
        {
          "internalType": "address",
          "name": "investor",
          "type": "address"
        }
      ],
      "name": "vestedAmount",
      "outputs": [
        {
          "internalType": "uint256",
          "name": "",
          "type": "uint256"
        }
      ],
      "stateMutability": "view",
      "type": "function"
    }
  ],
  "transactionHash": "0xdde393106e5ac45a4ded0cbfa2880760445284c19191c17a24a701ce9bb5c986",
  "args": [
    "0x5FbDB2315678afecb367f032d93F642f64180aa3"
  ],
  "numDeployments": 1,
  "solcInputHash": "27bd1949eaba49ec81e03acc818acbc7",
  "bytecode": "0x60806040523480156200001157600080fd5b5060405162001842380380620018428339818101604052810190620000379190620001d5565b620000576200004b6200009f60201b60201c565b620000a760201b60201c565b80600160006101000a81548173ffffffffffffffffffffffffffffffffffffffff021916908373ffffffffffffffffffffffffffffffffffffffff1602179055505062000207565b600033905090565b60008060009054906101000a900473ffffffffffffffffffffffffffffffffffffffff169050816000806101000a81548173ffffffffffffffffffffffffffffffffffffffff021916908373ffffffffffffffffffffffffffffffffffffffff1602179055508173ffffffffffffffffffffffffffffffffffffffff168173ffffffffffffffffffffffffffffffffffffffff167f8be0079c531659141344cd1fd0a4f28419497f9722a3daafe3b4186f6b6457e060405160405180910390a35050565b600080fd5b600073ffffffffffffffffffffffffffffffffffffffff82169050919050565b60006200019d8262000170565b9050919050565b620001af8162000190565b8114620001bb57600080fd5b50565b600081519050620001cf81620001a4565b92915050565b600060208284031215620001ee57620001ed6200016b565b5b6000620001fe84828501620001be565b91505092915050565b61162b80620002176000396000f3fe608060405234801561001057600080fd5b50600436106100f55760003560e01c80639e2583c911610097578063b9f0bf6611610066578063b9f0bf661461029c578063cdce101b146102cc578063dd0b281e146102fc578063f2fde38b1461032c576100f5565b80639e2583c9146101ec578063a3f8eace14610208578063aacffa5114610238578063b36760a31461026c576100f5565b8063661bd2c8116100d3578063661bd2c814610164578063715018a6146101945780638da5cb5b1461019e5780639852595c146101bc576100f5565b806319165587146100fa5780632f88a8f7146101165780634f3cf9b714610146575b600080fd5b610114600480360381019061010f9190610db2565b610348565b005b610130600480360381019061012b9190610db2565b610543565b60405161013d9190610e60565b60405180910390f35b61014e6105ce565b60405161015b9190610eda565b60405180910390f35b61017e60048036038101906101799190610f35565b6105f4565b60405161018b9190610f84565b60405180910390f35b61019c610608565b005b6101a661061c565b6040516101b39190610fae565b60405180910390f35b6101d660048036038101906101d19190610db2565b610645565b6040516101e39190610f84565b60405180910390f35b61020660048036038101906102019190610ff5565b610691565b005b610222600480360381019061021d9190610db2565b61090e565b60405161022f9190610f84565b60405180910390f35b610252600480360381019061024d9190610db2565b610934565b604051610263959493929190611070565b60405180910390f35b61028660048036038101906102819190610db2565b61096a565b6040516102939190610f84565b60405180910390f35b6102b660048036038101906102b19190610db2565b6109b6565b6040516102c39190610f84565b60405180910390f35b6102e660048036038101906102e19190610db2565b610a02565b6040516102f39190610f84565b60405180910390f35b61031660048036038101906103119190610db2565b610a4e565b6040516103239190610f84565b60405180910390f35b61034660048036038101906103419190610db2565b610a9a565b005b60006103538261090e565b905060008111610398576040517f08c379a000000000000000000000000000000000000000000000000000000000815260040161038f90611120565b60405180910390fd5b80600260008473ffffffffffffffffffffffffffffffffffffffff1673ffffffffffffffffffffffffffffffffffffffff168152602001908152602001600020600401546103e6919061116f565b600260008473ffffffffffffffffffffffffffffffffffffffff1673ffffffffffffffffffffffffffffffffffffffff16815260200190815260200160002060040181905550600160009054906101000a900473ffffffffffffffffffffffffffffffffffffffff1673ffffffffffffffffffffffffffffffffffffffff1663a9059cbb83836040518363ffffffff1660e01b81526004016104899291906111a3565b6020604051808303816000875af11580156104a8573d6000803e3d6000fd5b505050506040513d601f19601f820116820180604052508101906104cc9190611204565b50600160009054906101000a900473ffffffffffffffffffffffffffffffffffffffff1673ffffffffffffffffffffffffffffffffffffffff167f26d99c0019697c2ad90dfdaf3acff1258d56ce4f1cb39933aab1ca2c649297498284604051610537929190611231565b60405180910390a25050565b61054b610d20565b600260008373ffffffffffffffffffffffffffffffffffffffff1673ffffffffffffffffffffffffffffffffffffffff1681526020019081526020016000206040518060a0016040529081600082015481526020016001820154815260200160028201548152602001600382015481526020016004820154815250509050919050565b600160009054906101000a900473ffffffffffffffffffffffffffffffffffffffff1681565b60006106008383610b1d565b905092915050565b610610610bd6565b61061a6000610c54565b565b60008060009054906101000a900473ffffffffffffffffffffffffffffffffffffffff16905090565b6000600260008373ffffffffffffffffffffffffffffffffffffffff1673ffffffffffffffffffffffffffffffffffffffff168152602001908152602001600020600401549050919050565b600073ffffffffffffffffffffffffffffffffffffffff168573ffffffffffffffffffffffffffffffffffffffff1603610700576040517f08c379a00000000000000000000000000000000000000000000000000000000081526004016106f7906112cc565b60405180910390fd5b60008411610743576040517f08c379a000000000000000000000000000000000000000000000000000000000815260040161073a90611338565b60405180910390fd5b6000600260008773ffffffffffffffffffffffffffffffffffffffff1673ffffffffffffffffffffffffffffffffffffffff16815260200190815260200160002060000154146107c8576040517f08c379a00000000000000000000000000000000000000000000000000000000081526004016107bf906113ca565b60405180910390fd5b6040518060a001604052808581526020018481526020018381526020018281526020016000815250600260008773ffffffffffffffffffffffffffffffffffffffff1673ffffffffffffffffffffffffffffffffffffffff1681526020019081526020016000206000820151816000015560208201518160010155604082015181600201556060820151816003015560808201518160040155905050600160009054906101000a900473ffffffffffffffffffffffffffffffffffffffff1673ffffffffffffffffffffffffffffffffffffffff166323b872dd3330876040518463ffffffff1660e01b81526004016108c3939291906113ea565b6020604051808303816000875af11580156108e2573d6000803e3d6000fd5b505050506040513d601f19601f820116820180604052508101906109069190611204565b505050505050565b600061091982610645565b61092342846105f4565b61092d9190611421565b9050919050565b60026020528060005260406000206000915090508060000154908060010154908060020154908060030154908060040154905085565b6000600260008373ffffffffffffffffffffffffffffffffffffffff1673ffffffffffffffffffffffffffffffffffffffff168152602001908152602001600020600301549050919050565b6000600260008373ffffffffffffffffffffffffffffffffffffffff1673ffffffffffffffffffffffffffffffffffffffff168152602001908152602001600020600001549050919050565b6000600260008373ffffffffffffffffffffffffffffffffffffffff1673ffffffffffffffffffffffffffffffffffffffff168152602001908152602001600020600201549050919050565b6000600260008373ffffffffffffffffffffffffffffffffffffffff1673ffffffffffffffffffffffffffffffffffffffff168152602001908152602001600020600101549050919050565b610aa2610bd6565b600073ffffffffffffffffffffffffffffffffffffffff168173ffffffffffffffffffffffffffffffffffffffff1603610b11576040517f08c379a0000000000000000000000000000000000000000000000000000000008152600401610b08906114c7565b60405180910390fd5b610b1a81610c54565b50565b600080610b29836109b6565b90506000610b3684610a02565b610b3f85610a4e565b610b49919061116f565b9050808567ffffffffffffffff161015610b6857600092505050610bd0565b610b718461096a565b81610b7c919061116f565b8567ffffffffffffffff161115610b97578192505050610bd0565b610ba08461096a565b818667ffffffffffffffff16610bb69190611421565b83610bc191906114e7565b610bcb9190611558565b925050505b92915050565b610bde610d18565b73ffffffffffffffffffffffffffffffffffffffff16610bfc61061c565b73ffffffffffffffffffffffffffffffffffffffff1614610c52576040517f08c379a0000000000000000000000000000000000000000000000000000000008152600401610c49906115d5565b60405180910390fd5b565b60008060009054906101000a900473ffffffffffffffffffffffffffffffffffffffff169050816000806101000a81548173ffffffffffffffffffffffffffffffffffffffff021916908373ffffffffffffffffffffffffffffffffffffffff1602179055508173ffffffffffffffffffffffffffffffffffffffff168173ffffffffffffffffffffffffffffffffffffffff167f8be0079c531659141344cd1fd0a4f28419497f9722a3daafe3b4186f6b6457e060405160405180910390a35050565b600033905090565b6040518060a0016040528060008152602001600081526020016000815260200160008152602001600081525090565b600080fd5b600073ffffffffffffffffffffffffffffffffffffffff82169050919050565b6000610d7f82610d54565b9050919050565b610d8f81610d74565b8114610d9a57600080fd5b50565b600081359050610dac81610d86565b92915050565b600060208284031215610dc857610dc7610d4f565b5b6000610dd684828501610d9d565b91505092915050565b6000819050919050565b610df281610ddf565b82525050565b60a082016000820151610e0e6000850182610de9565b506020820151610e216020850182610de9565b506040820151610e346040850182610de9565b506060820151610e476060850182610de9565b506080820151610e5a6080850182610de9565b50505050565b600060a082019050610e756000830184610df8565b92915050565b6000819050919050565b6000610ea0610e9b610e9684610d54565b610e7b565b610d54565b9050919050565b6000610eb282610e85565b9050919050565b6000610ec482610ea7565b9050919050565b610ed481610eb9565b82525050565b6000602082019050610eef6000830184610ecb565b92915050565b600067ffffffffffffffff82169050919050565b610f1281610ef5565b8114610f1d57600080fd5b50565b600081359050610f2f81610f09565b92915050565b60008060408385031215610f4c57610f4b610d4f565b5b6000610f5a85828601610f20565b9250506020610f6b85828601610d9d565b9150509250929050565b610f7e81610ddf565b82525050565b6000602082019050610f996000830184610f75565b92915050565b610fa881610d74565b82525050565b6000602082019050610fc36000830184610f9f565b92915050565b610fd281610ddf565b8114610fdd57600080fd5b50565b600081359050610fef81610fc9565b92915050565b600080600080600060a0868803121561101157611010610d4f565b5b600061101f88828901610d9d565b955050602061103088828901610fe0565b945050604061104188828901610fe0565b935050606061105288828901610fe0565b925050608061106388828901610fe0565b9150509295509295909350565b600060a0820190506110856000830188610f75565b6110926020830187610f75565b61109f6040830186610f75565b6110ac6060830185610f75565b6110b96080830184610f75565b9695505050505050565b600082825260208201905092915050565b7f56657374696e673a206e6f20746f6b656e732061726520647565000000000000600082015250565b600061110a601a836110c3565b9150611115826110d4565b602082019050919050565b60006020820190508181036000830152611139816110fd565b9050919050565b7f4e487b7100000000000000000000000000000000000000000000000000000000600052601160045260246000fd5b600061117a82610ddf565b915061118583610ddf565b925082820190508082111561119d5761119c611140565b5b92915050565b60006040820190506111b86000830185610f9f565b6111c56020830184610f75565b9392505050565b60008115159050919050565b6111e1816111cc565b81146111ec57600080fd5b50565b6000815190506111fe816111d8565b92915050565b60006020828403121561121a57611219610d4f565b5b6000611228848285016111ef565b91505092915050565b60006040820190506112466000830185610f75565b6112536020830184610f9f565b9392505050565b7f56657374696e673a205f696e766573746f7220697320746865207a65726f206160008201527f6464726573730000000000000000000000000000000000000000000000000000602082015250565b60006112b66026836110c3565b91506112c18261125a565b604082019050919050565b600060208201905081810360008301526112e5816112a9565b9050919050565b7f56657374696e673a205f616d6f756e7420697320300000000000000000000000600082015250565b60006113226015836110c3565b915061132d826112ec565b602082019050919050565b6000602082019050818103600083015261135181611315565b9050919050565b7f56657374696e673a205f696e766573746f7220616c726561647920657869737460008201527f7300000000000000000000000000000000000000000000000000000000000000602082015250565b60006113b46021836110c3565b91506113bf82611358565b604082019050919050565b600060208201905081810360008301526113e3816113a7565b9050919050565b60006060820190506113ff6000830186610f9f565b61140c6020830185610f9f565b6114196040830184610f75565b949350505050565b600061142c82610ddf565b915061143783610ddf565b925082820390508181111561144f5761144e611140565b5b92915050565b7f4f776e61626c653a206e6577206f776e657220697320746865207a65726f206160008201527f6464726573730000000000000000000000000000000000000000000000000000602082015250565b60006114b16026836110c3565b91506114bc82611455565b604082019050919050565b600060208201905081810360008301526114e0816114a4565b9050919050565b60006114f282610ddf565b91506114fd83610ddf565b925082820261150b81610ddf565b9150828204841483151761152257611521611140565b5b5092915050565b7f4e487b7100000000000000000000000000000000000000000000000000000000600052601260045260246000fd5b600061156382610ddf565b915061156e83610ddf565b92508261157e5761157d611529565b5b828204905092915050565b7f4f776e61626c653a2063616c6c6572206973206e6f7420746865206f776e6572600082015250565b60006115bf6020836110c3565b91506115ca82611589565b602082019050919050565b600060208201905081810360008301526115ee816115b2565b905091905056fea264697066735822122039355e69233c10d1116c7693410bbf65d49f39a2b0caa45ffb1663661d78ad8064736f6c63430008130033",
  "devdoc": {
    "kind": "dev",
    "methods": {
      "addInvestor(address,uint256,uint256,uint256,uint256)": {
        "details": "Add an investor to the vesting contract",
        "params": {
          "_amount": ": amount of tokens to vest",
          "_cliff": ": cliff as seconds after start time",
          "_duration": ": duration as seconds after start time",
          "_investor": ": address of the investor",
          "_start": ": start time of the vesting period"
        }
      },
      "amount(address)": {
        "details": "Getter for the amount of tokens to vest",
        "params": {
          "investor": "The address of the investor"
        }
      },
      "cliff(address)": {
        "details": "Getter for the cliff of the vesting period",
        "params": {
          "investor": "The address of the investor"
        }
      },
      "constructor": {
        "params": {
          "_tokenToVest": ": address of the token to vest"
        }
      },
      "duration(address)": {
        "details": "Getter for the duration of the vesting period",
        "params": {
          "investor": "The address of the investor"
        }
      },
      "getInvestorConfig(address)": {
        "details": "Getter for the investor config",
        "params": {
          "investor": "The address of the investor"
        }
      },
      "owner()": {
        "details": "Returns the address of the current owner."
      },
      "releasable(address)": {
        "details": "Getter for the amount of releasable token.",
        "params": {
          "investor": "The address of the investor"
        }
      },
      "release(address)": {
        "details": "Release the native token (token) that have already vested.",
        "params": {
          "investor": "The address of the investor Emits a {tokenReleased} event."
        }
      },
      "released(address)": {
        "details": "Amount of token already released",
        "params": {
          "investor": "The address of the investor"
        }
      },
      "renounceOwnership()": {
        "details": "Leaves the contract without owner. It will not be possible to call `onlyOwner` functions anymore. Can only be called by the current owner. NOTE: Renouncing ownership will leave the contract without an owner, thereby removing any functionality that is only available to the owner."
      },
      "start(address)": {
        "details": "Getter for the start time of the vesting period",
        "params": {
          "investor": "The address of the investor"
        }
      },
      "transferOwnership(address)": {
        "details": "Transfers ownership of the contract to a new account (`newOwner`). Can only be called by the current owner."
      },
      "vestedAmount(uint64,address)": {
        "details": "Calculates the amount of token that has already vested. Default implementation is a linear vesting curve.",
        "params": {
          "investor": "The address of the investor",
          "timestamp": "The timestamp at which the vested amount is calculated"
        }
      }
    },
    "version": 1
  },
  "userdoc": {
    "kind": "user",
    "methods": {},
    "version": 1
  },
  "storageLayout": {
    "storage": [
      {
        "astId": 7,
        "contract": "contracts/VestingManager.sol:VestingManager",
        "label": "_owner",
        "offset": 0,
        "slot": "0",
        "type": "t_address"
      },
      {
        "astId": 990,
        "contract": "contracts/VestingManager.sol:VestingManager",
        "label": "s_tokenToVest",
        "offset": 0,
        "slot": "1",
        "type": "t_contract(IERC20)777"
      },
      {
        "astId": 995,
        "contract": "contracts/VestingManager.sol:VestingManager",
        "label": "s_addressToInvestorConfig",
        "offset": 0,
        "slot": "2",
        "type": "t_mapping(t_address,t_struct(InvestorConfig)1006_storage)"
      }
    ],
    "types": {
      "t_address": {
        "encoding": "inplace",
        "label": "address",
        "numberOfBytes": "20"
      },
      "t_contract(IERC20)777": {
        "encoding": "inplace",
        "label": "contract IERC20",
        "numberOfBytes": "20"
      },
      "t_mapping(t_address,t_struct(InvestorConfig)1006_storage)": {
        "encoding": "mapping",
        "key": "t_address",
        "label": "mapping(address => struct VestingManager.InvestorConfig)",
        "numberOfBytes": "32",
        "value": "t_struct(InvestorConfig)1006_storage"
      },
      "t_struct(InvestorConfig)1006_storage": {
        "encoding": "inplace",
        "label": "struct VestingManager.InvestorConfig",
        "members": [
          {
            "astId": 997,
            "contract": "contracts/VestingManager.sol:VestingManager",
            "label": "amount",
            "offset": 0,
            "slot": "0",
            "type": "t_uint256"
          },
          {
            "astId": 999,
            "contract": "contracts/VestingManager.sol:VestingManager",
            "label": "start",
            "offset": 0,
            "slot": "1",
            "type": "t_uint256"
          },
          {
            "astId": 1001,
            "contract": "contracts/VestingManager.sol:VestingManager",
            "label": "cliff",
            "offset": 0,
            "slot": "2",
            "type": "t_uint256"
          },
          {
            "astId": 1003,
            "contract": "contracts/VestingManager.sol:VestingManager",
            "label": "duration",
            "offset": 0,
            "slot": "3",
            "type": "t_uint256"
          },
          {
            "astId": 1005,
            "contract": "contracts/VestingManager.sol:VestingManager",
            "label": "released",
            "offset": 0,
            "slot": "4",
            "type": "t_uint256"
          }
        ],
        "numberOfBytes": "160"
      },
      "t_uint256": {
        "encoding": "inplace",
        "label": "uint256",
        "numberOfBytes": "32"
      }
    }
  }
}